:100000000C9434000C943E000C943E000C943E0082
:100010000C943E000C943E000C943E000C943E0068
:100020000C943E000C943E000C943E000C943E0058
:100030000C943E000C943E000C943E000C943E0048
:100040000C943E000C943E000C943E000C943E0038
:100050000C943E000C943E000C943E000C943E0028
:100060000C943E000C943E0011241FBECFEFD8E04C
:10007000DEBFCDBF0E9440000C9463000C940000D2
:1000800085B1816385B984B1816284B984B18F7E81
:1000900084B91C99FECF95B181E0892785B900000C
:1000A000189B04C085B1806285B903C085B18F7D7E
:1000B00085B92FEF89E698E1215080409040E1F723
:0A00C00000C00000E6CFF894FFCF67
:00000001FF
