S024000041546D656761333238505F4C45445F466565646261636B5F53796E632E7372656350
S11300000C9434000C943E000C943E000C943E007E
S11300100C943E000C943E000C943E000C943E0064
S11300200C943E000C943E000C943E000C943E0054
S11300300C943E000C943E000C943E000C943E0044
S11300400C943E000C943E000C943E000C943E0034
S11300500C943E000C943E000C943E000C943E0024
S11300600C943E000C943E0011241FBECFEFD8E048
S1130070DEBFCDBF0E9440000C945E000C940000D3
S113008085B1816285B984B1816284B995B181E019
S1130090892785B90000189B04C085B1806285B9A1
S11300A003C085B18F7D85B92FEF83ED90E3215097
S11300B080409040E1F700C00000E8CFF894FFCF03
S9030000FC
